:020000040000FA
:100000005006001059020000610200006302000067
:1000100065020000670200006902000000000000A5
:100020000000000000000000000000006B02000063
:100030006D020000000000006F020000ED410000B2
:1000400073020000730200007302000073020000DC
:1000500073020000730200007302000073020000CC
:1000600073020000730200007302000073020000BC
:1000700073020000730200007302000073020000AC
:10008000730200007302000073020000730200009C
:10009000730200007302000073020000730200008C
:1000A000730200004D3E0000730200007302000066
:1000B000730200007302000073020000730200006C
:1000C00073020000730200007302000000F002F8E7
:1000D00000F0B2F80AA090E8000C82448344AAF130
:1000E0000107DA4501D100F0A7F8AFF2090EBAE82E
:1000F0000F0013F0010F18BFFB1A43F0010318475C
:100100005C5900007C5900000A444FF0000C10F8C4
:10011000013B13F0070408BF10F8014B1D1108BF85
:1001200010F8015B641E05D010F8016B641E01F825
:10013000016BF9D113F0080F1EBF10F8014BAD1C75
:100140000C1B09D16D1E58BF01F801CBFAD505E093
:1001500014F8016B01F8016B6D1EF9D59142D6D3ED
:10016000704700000023002400250026103A28BF15
:1001700078C1FBD8520728BF30C148BF0B60704719
:100180006E2904F0AB81702904F0EE82662905F037
:10019000F683652905F0F383672905F0F08361296B
:1001A000AFF3008003681B0A28BF41F08001692972
:1001B00004F05881642904F05581752904F05281B6
:1001C0006F2904F07982782904F0BA82E92904F0D1
:1001D0001182E42904F00E82F52904F00B82EF2944
:1001E00004F07682F82904F0B9820368DB0928BF9D
:1001F00041F08001632904F04386732904F04886A6
:10020000E32904F05386F32904F058860020704750
:100210001FB505F0ADFB00F06BF8040000200021D5
:1002200005F090FB401C60600020002105F074FB8D
:10023000E0601FBD10B510BD04F064FE1146FFF76D
:10024000E7FF03F0F7FE04F03DFF03B4FFF7F2FF12
:1002500003BC04F081FF00000948804709480047BB
:10026000FEE7FEE7FEE7FEE7FEE7FEE7FEE7FEE766
:10027000FEE7FEE704480549034A054B70470000C6
:100280003D040000CD000000500400105006001096
:1002900050040010B2F120030AD5C2F1200301FA84
:1002A00002F120FA03F300FA02F041EA0301704779
:1002B00000FA03F14FF000007047B2F120030AD5B5
:1002C000C2F1200320FA02F001FA03F321FA02F14D
:1002D00040EA0300704721FA03F04FF00001704735
:1002E0007047704770470A6802F8010B0A60704750
:1002F000004870471004001070470000FFFFFFFF28
:1003000098480068C0F30160032865D1954884309F
:10031000006810F0030006D0012823D002283FD047
:10032000032858D100E000BF8E480068C0F30E00DB
:1003300000F101004FEA40008B4900FB01F08B49BE
:10034000D1F88810C1F3074101F10101B0FBF1F1CF
:1003500087480068C0B200F10100B1FBF0F08549A8
:10036000086038E07F480068C0F30E0000F101002B
:100370004FEA4000804900FB01F07C49D1F8881029
:10038000C1F3074101F10101B0FBF1F178480068C8
:10039000C0B200F10100B1FBF0F0764908601AE04C
:1003A00070480068C0F30E0000F101004FEA004100
:1003B0006E48D0F88800C0F3074000F10100B1FB9F
:1003C000F0F16B480068C0B200F10100B1FBF0F041
:1003D0006849086000BF30E065480830006810F0E8
:1003E000030006D0012810D0022819D0032823D1F9
:1003F00000E000BF5E480068C0B200F101005A4949
:10040000B1FBF0F05B49086016E059480068C0B2E3
:1004100000F101005849B1FBF0F0564908600BE0CB
:1004200053480068C0B200F101004FF40041B1FB35
:10043000F0F05049086000BF00BF70474FF0200047
:100440004E4908604948D0F8A00110F0200F05D0AF
:1004500000BF4A48006810F0400FFAD04FF0030088
:10046000434908604FF000004049C1F8A8014449E1
:1004700008604FF001004349086043484349086061
:100480004FF0AA00424908604FF0550008604FF055
:100490000100404908604FF0AA003D4908604FF054
:1004A00055003249C1F88C0000BF2E48006810F09A
:1004B000806FFAD04FF00300364908604FF0AA0071
:1004C0002A49C1F88C004FF055003149086000BF3F
:1004D0002448006810F0407FFAD04FF023002E49E6
:1004E00008604FF0AA002149C1F8AC004FF0550058
:1004F0002A4908604FF00100294908604FF0AA001E
:10050000264908604FF055001849C1F8AC0000BFFB
:100510002148001D006810F4806FF9D04FF00300EF
:100520001F4908604FF0AA001049C1F8AC004FF015
:1005300055001A49086000BF1748001D006810F4F4
:10054000407FF9D01748184908604FF0000007496C
:10055000C1F8C80143F23A0008604FF000001349A7
:100560000860704788C00F4000093D0000C00F4080
:1005700004C10F4000000010001BB700A0C10F40D5
:10058000ACC10F400CC10F406300050084C00F4098
:100590008CC00F4080C00F40A4C00F40ACC00F40C3
:1005A000A0C00F40DE872804C4C00F4008ED00E063
:1005B00013B504464FF001031A4601A9204600F086
:1005C00035FD1CBD38B504464FF0000000904FF0DB
:1005D00001031A466946204600F07DFD9DF80000A3
:1005E00038BD70B506460D462C4604E014F8011BD4
:1005F0003046FFF7DDFF20780028F7D170BD70B5D9
:1006000004460D4629462046FFF7EBFFF6A120469B
:10061000FFF7E7FF70BD2DE9F04105460C464FF0AE
:100620000A0094FBF0F100FB1140C6B24FF00A0043
:1006300094FBF0F04FF00A0190FBF1F201FB120085
:10064000C7B24FF0640094FBF0F090FBF1F201FBB5
:10065000120000F0FF0808F13000C1B22846FFF791
:10066000A7FF07F13000C1B22846FFF7A1FF06F14E
:100670003000C1B22846FFF79BFFBDE8F0812DE9AD
:10068000F04705460C464FF00A0094FBF0F100FBE2
:100690001140C6B24FF00A0094FBF0F04FF00A018F
:1006A00090FBF1F201FB1200C7B24FF0640094FB23
:1006B000F0F090FBF1F201FB120000F0FF084FF4A4
:1006C0007A7094FBF0F090FBF1F201FB120000F065
:1006D000FF0942F2107094FBF0F090FBF1F201FB85
:1006E000120000F0FF0A0AF13000C1B22846FFF7FD
:1006F0005FFF09F13000C1B22846FFF759FF08F14A
:100700003000C1B22846FFF753FF07F13000C1B2F5
:100710002846FFF74DFF06F13000C1B22846FFF72B
:1007200047FFBDE8F0872DE9F34F83B00C464FF04B
:100730000A00B4FBF0F100FB1145B4FBF0F04FF000
:100740000A01B0FBF1F201FB12064FF06400B4FBAA
:10075000F0F0B0FBF1F201FB12074FF47A70B4FB3A
:10076000F0F0B0FBF1F201FB120842F21070B4FBA2
:10077000F0F0B0FBF1F201FB12099C48B4FBF0F081
:10078000B0FBF1F201FB120A9948B4FBF0F0B0FBA8
:10079000F1F201FB120B9748B4FBF0F0B0FBF1F261
:1007A00001FB120002909448B4FBF0F0B0FBF1F2B0
:1007B00001FB120001909148B4FBF0F0B0FBF1F2A4
:1007C00001FB12000090009800F13000C1B20398C4
:1007D000FFF7EEFE01983030C1B20398FFF7E8FE54
:1007E00002983030C1B20398FFF7E2FE0BF13000FF
:1007F000C1B20398FFF7DCFE0AF13000C1B20398E2
:10080000FFF7D6FE09F13000C1B20398FFF7D0FE22
:1008100008F13000C1B20398FFF7CAFE07F13000BB
:10082000C1B20398FFF7C4FE06F13000C1B20398CD
:10083000FFF7BEFE05F13000C1B20398FFF7B8FE26
:1008400005B0BDE8F08F2DE9F04107460D466CA1DB
:100850003846FFF7C6FE4FF0010600BF4FEA86009C
:1008600045FA00F000F00F04092C02DD04F1370016
:1008700001E004F13000C1B23846FFF799FE3000C4
:10088000A6F10101CEB2E9D1BDE8F0812DE9F04138
:1008900007460D465AA13846FFF7A3FE4FF0030660
:1008A00000BF4FEA860045FA00F000F00F04092C63
:1008B00002DD04F1370001E004F13000C1B2384636
:1008C000FFF776FE3000A6F10101CEB2E9D1BDE816
:1008D000F0812DE9F04107460D4649A13846FFF762
:1008E00080FE4FF0070600BF4FEA860025FA00F0B1
:1008F00000F00F04092C02DD04F1370001E004F1DF
:100900003000C1B23846FFF753FE3000A6F10101B6
:10091000CEB2E9D1BDE8F0810FB408B503A80090CC
:100920003848009A029903F027FD4FF0000000902C
:1009300034493548354A1268904701B05DF814FBD8
:100940001FB54FF001008DF802004FF000008DF848
:1009500004008DF803004FF002008DF801004FF005
:1009600000008DF80000684601F090F84FF0030099
:100970008DF80100684601F089F802A800F012FB2A
:100980004FF4E130029002A91F4800F06EF90121F6
:100990001D4800F08BFAAFF2B5301C490860AFF289
:1009A000A1301B490860AFF2F7301A490860AFF276
:1009B000691019490860AFF22B1018490860AFF2AE
:1009C000ED0017490860AFF2B13016490860AFF288
:1009D000513015490860AFF2B12014490860AFF2F8
:1009E0001B40134908601FBD0A0D0000A0860100CE
:1009F00040420F008096980000E1F50500CA9A3B3E
:100A000030780000CC01001000C00040040000104D
:100A1000080000100C0000101C0000102000001046
:100A20002400001010000010140000101800001026
:100A3000280000102DE9F04F93B080468B464FF010
:100A400000000A90F748804504D1062001F07BF8A9
:100A5000814616E0F448804504D1082001F073F87F
:100A600081460EE0F148804504D1302001F06BF85A
:100A7000814606E0EE48804503D1322001F063F85C
:100A800081464FF0FF3004904FF00000089007902F
:100A9000044625464FF0010A5BE04FF00000099044
:100AA0004EE00998504400FB0BF0029000201C22FD
:100AB000CDE90D0948460D99FFF7ECFB0022A0FB9C
:100AC0000A3C01FB0AC100FB0210CDE90030002303
:100AD0009DE8070003F0D8FB06460F4605964FF049
:100AE000200230463946CDE90B76FFF7E6FB06904B
:100AF0000598B0F1004F07D90598C0F100000590A6
:100B0000069800F101000690069818B10698B0F515
:100B1000803F00D910E0DDE9041088420BD205982F
:100B200004904FF00005069C09980890CDF81CA091
:100B3000049800B907E000BF099800F1010009908E
:100B400009985045ADD300BF049800B904E00AF1FC
:100B5000010ABAF10F0FA0D900BF002184EA0100F9
:100B60006940084302D113B0BDE8F08F4FEA191075
:100B7000079900FB01FC0846089908440021A0FBE6
:100B8000042301FB043100FB05100346CDE90020DE
:100B90006046002103F078FB03900398834504D955
:100BA0000398ABEB0000049003E00398A0EB0B006C
:100BB00004904FF06401049800FB01F0B0FBFBF0DF
:100BC0000490049803284ED29748804524D198F881
:100BD0000C0040F0800088F80C004FF0080220461E
:100BE0002946CDE90F54FFF768FB88F8040088F820
:100BF000004098F80C0000F07F0088F80C004FF0DF
:100C0000F001079801EA0010089901F00F0140EA8D
:100C10000100C8F8280023E098F80C0040F080009C
:100C200088F80C004FF0080220462946CDE91154FF
:100C3000FFF743FB88F8040088F8004098F80C00A0
:100C400000F07F0088F80C004FF0F001079801EAEF
:100C50000010089901F00F0140EA010088F828000F
:100C60004FF001000A900A987DE770B504460D46E2
:100C70006C48844208D06C48844205D06B4884425A
:100C800002D06B48844200D103E0C92169A003F07F
:100C9000D3F9687940B16879012805D068790228CC
:100CA00002D06879032800D103E0CA2161A003F0D3
:100CB000C3F9A87910B1A879012800D103E0CB21AC
:100CC0005CA003F0B9F9287958B12879012808D037
:100CD0002879022805D02879032802D02879042809
:100CE00000D103E0CC2153A003F0A6F94D48844283
:100CF00003D10121082000F047FF4B48844203D173
:100D00000121102000F040FF4848844203D1012116
:100D1000080600F039FF4648844203D10121480605
:100D200000F032FF4048844225D14FF00700207286
:100D30004FF00000207200E02678207D10F0010FB7
:100D4000FAD14FF0800084F8300000BF207D10F011
:100D5000200FFBD04FF0000084F83000606020735B
:100D60002062207484F84C0084F8540084F8500009
:100D7000267E267D1CE04FF0070020724FF0000019
:100D8000207200E02678207D10F0010FFAD14FF09C
:100D9000800084F8300000BF207D10F0200FFBD0D1
:100DA0004FF0000084F83000606020732062267DE0
:100DB0001F48844203D14FF0000084F824002046ED
:100DC0002968FFF737FE1848844203D1207B00F0E2
:100DD000C00602E0207B00F0C006687930B101282F
:100DE00006D0022807D0032808D108E000BF09E098
:100DF00046F0010606E046F0020603E000BF46F0BA
:100E0000030600BF00BF287958B146F008062879CC
:100E100001282DD002282DD003282ED0042832D12D
:100E20002EE032E000C00040000001400080094098
:100E300000C009402E2E5C4C696272617269657354
:100E40005C4C4350313736385F5374645065726977
:100E500070685F4472697665725C736F7572636502
:100E60005C6C7063313778785F756172742E6300E3
:100E700000BF09E046F0100606E046F0200603E059
:100E800046F0300600E000BF00BFA87928B1012875
:100E900002D146F0040601E000BF00BF00BFF948E0
:100EA000844201D1267300E0267370BD70B50446FC
:100EB0000D46F548844208D0F248844205D0F348F4
:100EC000844202D0F248844200D105E040F2EA3187
:100ED000AFF2A00003F0B0F80DB1012D00D105E094
:100EE00040F2EB31AFF2B40003F0A6F8012D10D1BF
:100EF000E448844206D194F8300040F0800084F841
:100F0000300016E094F8300040F0800084F83000A3
:100F10000FE0DC48844206D194F830004FF0000026
:100F200084F8300005E094F830004FF0000084F8B9
:100F3000300070BD10B50446D348844208D0D14873
:100F4000844205D0D148844202D0D148844200D1A5
:100F500005E040F29511AFF2241003F06DF8002186
:100F60002046FFF7A3FFC848844203D10021082090
:100F700000F00AFEC348844203D10021102000F093
:100F800003FEC248844204D100214FF0807000F07B
:100F9000FBFDBF48844204D100214FF0007000F0F7
:100FA000F3FD10BD4FF4165101604FF00301417184
:100FB0004FF0000101718171704770B504460D4614
:100FC000B148844208D0AF48844205D0AF4884423B
:100FD00002D0AF48844200D105E040F2D911AFF20F
:100FE000AC1003F029F8A748844201D1257000E035
:100FF000257070BD10B50446A348844208D0A148AE
:10100000844205D0A148844202D0A148844200D144
:1010100005E04FF4F971AFF2E41003F00DF89948D0
:10102000844201D1207810BD2078FCE72DE9FF5FD4
:1010300080468A46934657465C460398012829D144
:101040004FF0000523E04FF0FF3905E0B9F1000F44
:1010500000D106E0A9F1010998F8140010F0200F62
:10106000F4D000BFB9F1000F00D112E04FF010062C
:101070000AE017F8011B4046FFF79FFFA6F10106A3
:10108000A4F1010405F101050EB1002CF1D1002CF1
:10109000D9D11CE04FF0000516E098F8140010F0CC
:1010A000200F00D112E04FF010060AE017F8011BE4
:1010B0004046FFF782FFA4F10104A6F1010605F105
:1010C00001050EB1002CF1D1002CE6D100BF28465D
:1010D00004B0BDE8F09F2DE9F05F074689469246CF
:1010E0009B464E465546BBF1010F20D14FF0000400
:1010F0001AE04FF0FF3805E0B8F1000F00D105E02D
:10110000A8F10108387D10F0010FF5D000BFB8F14B
:10111000000F00D10AE03846FFF76CFF06F8010B1C
:10112000A5F1010504F10104002DE2D113E04FF017
:1011300000040DE0387D10F0010F00D10AE03846C0
:10114000FFF758FF06F8010B04F10104A5F10105B2
:10115000002DEFD100BF2046BDE8F09F10B504463A
:101160004948844208D04748844205D047488442D1
:1011700002D04748844200D105E04FF42171AFF21C
:101180004C3002F059FF3F48844204D1207B40F0AC
:101190004000207303E0207B40F04000207310BD2E
:1011A0002DE9F04104460D4617463748844208D0E1
:1011B0003448844205D03548844202D034488442C1
:1011C00000D105E040F2AB21AFF2983002F034FFDD
:1011D0000FB1012F00D105E04FF42B71AFF2AC300D
:1011E00002F02AFF072D1AD2DFE805F004070A0DE6
:1011F000101316004FF0010611E04FF002060EE04A
:101200004FF004060BE04FF0080608E04FF08006B0
:1012100005E04FF4807602E04FF4007600BF00BF97
:101220001848844214D15DB1012D09D0022D07D098
:10123000052D05D0062D03D0032D01D0042D00D19E
:1012400016E04FF43271AFF2144002F0F5FE0FE0F9
:101250003DB1012D05D0022D03D0052D01D0062D65
:1012600000D105E04FF43371AFF2384002F0E4FEF4
:10127000012F14D1034884420CD1606840EA060073
:10128000606020E00000014000C000400080094094
:1012900000C00940606840EA0600606013E0F6485C
:1012A000844208D1606840F28F3121EA060100EAE9
:1012B0000100606007E0606840F2073121EA060142
:1012C00000EA01006060BDE8F08110B50446EB481B
:1012D000844208D0E848844205D0E948844202D0DC
:1012E000E848844200D105E040F2FA21AFF2BC4068
:1012F00002F0A2FEE048844201D1007D10BD207DB5
:10130000FCE710B50446DD48844208D0DA48844240
:1013100005D0DB48844202D0DA48844200D105E09F
:1013200040F21131AFF2F44002F086FEA06840F2C4
:10133000CF31084010BD0146087D10F0400F01D0AC
:10134000002070470120FCE770B506460C464FF0C0
:101350000005CA48864208D0C748864205D0C8481A
:10136000864202D0C748864200D105E040F23731BC
:10137000AFF2405002F060FEE07840B1E078012822
:1013800005D0E078022802D0E078032800D105E0FB
:101390004FF44E71AFF2645002F04EFEA07810B1DF
:1013A000A078012800D105E040F23931AFF27C503D
:1013B00002F042FE207810B12078012800D105E02B
:1013C00040F23A31AFF2945002F036FE607810B13C
:1013D0006078012800D105E040F23B31AFF2AC501B
:1013E00002F02AFE45F00105E07830B1012806D070
:1013F000022807D0032808D108E000BF09E045F023
:10140000400506E045F0800503E000BF45F0C0055B
:1014100000BF00BF6078012801D145F004052078A5
:10142000012801D145F00205A078012801D145F03D
:1014300008059148864203D105F0CF00307202E0E2
:1014400005F0CF00307270BD4FF000018170C170A7
:101450004FF001010170417070472DE9F0410446E1
:101460000F4615468548844208D08348844205D0FB
:101470008348844202D08348844200D105E040F290
:101480009231AFF2506002F0D7FD0DB1012D00D1C5
:1014900005E040F29331AFF2646002F0CDFD4FF011
:1014A0000006012D09D13878012801D146F0020645
:1014B0007878012801D146F004066F48844218D19B
:1014C000012D12D1207B40F0800020734FF00000EE
:1014D00020702071207B20F0800020734FF01000DE
:1014E000A06246F0010020621CE04FF00000206284
:1014F00018E0012D13D1207B40F0800020734FF0C5
:10150000000020702071207B20F0800020734FF0BD
:10151000100084F8280046F00100206202E04FF03D
:1015200000002062BDE8F08170B504460D465348C6
:10153000844208D05048844205D05148844202D0A9
:101540005048844200D105E040F2D331AFF21C7024
:1015500002F072FD4848844204D1206A40EA050046
:10156000206203E0206A40EA0500206270BD70B589
:1015700004460D464348844200D105E040F2144140
:10158000AFF2507002F058FD0DB1012D00D105E011
:1015900040F21541AFF2647002F04EFD012D06D10C
:1015A00094F8240040F0020084F8240006E02DB9ED
:1015B00094F8240000F03D0084F8240070BD70B55C
:1015C00004460D462F48844200D105E040F22C41EC
:1015D000AFF2A07002F030FD0DB1012D00D105E099
:1015E00040F22D41AFF2B47002F026FD012D06D17C
:1015F00094F8240040F0010084F8240005E094F8F9
:10160000240000F03E0084F8240070BD2DE9F04174
:1016100005460C461B48854200D105E040F24D418D
:10162000AFF2F07002F008FD6CB1012C0BD0022C6F
:1016300009D0032C07D0042C05D0052C03D0062C90
:1016400001D0072C00D105E040F24E41AFF61C005E
:1016500002F0F2FC4FEA44704FEA906795F82400DC
:1016600020F0380647F0040040EA060606F03F0086
:1016700085F82400BDE8F0810000014000C0004072
:101680000080094000C009402DE9F04104460D46A4
:1016900016464FF00007BC48844200D105E040F2F6
:1016A0006D41AFF6700002F0C7FC0DB1012D00D105
:1016B00005E040F26E41AFF6840002F0BDFC0EB1D1
:1016C000012E00D105E040F26F41AFF6980002F024
:1016D000B3FC15B1012D06D102E04FF0010703E084
:1016E0004FF0020700E000BF00BF012E04D1207CB4
:1016F00040EA0700207407E0207C4FF0F30121EA64
:10170000070100EA01002074BDE8F0812DE9F041F5
:1017100004460D4617469C48844200D105E040F23D
:101720009541AFF6F00002F087FC1DB1012D01D00C
:10173000022D00D105E040F29641AFF6081002F00C
:101740007BFC0FB1012F00D105E040F29741AFF6CD
:101750001C1002F071FC25B1012D05D0022D09D11C
:1017600005E04FF0100606E04FF0400603E04FF0B2
:10177000800600E000BF00BF012F04D1207C40EABA
:101780000600207407E0207C4FF0F30121EA0601F7
:1017900000EA01002074BDE8F08110B504467A48E3
:1017A000844200D105E04FF49861AFF6781002F062
:1017B00043FC207E10BD70B506460C46724886423A
:1017C00000D105E040F2D441AFF6981002F034FCAD
:1017D000A07810B1A078012800D105E040F2D541F1
:1017E000AFF6B01002F028FCE07810B1E0780128E4
:1017F00000D105E040F2D641AFF6C81002F01CFC63
:10180000E079FF2800DA05E040F2D741AFF6DC10BE
:1018100002F012FC607910B16079012800D105E076
:101820004FF49B61AFF6F41002F006FC207910B182
:101830002079012800D105E040F2D941AFF60C2013
:1018400002F0FAFBA079FF2800DA05E040F2DA4165
:10185000AFF6202002F0F0FB207810B120780128AC
:1018600000D105E040F2DB41AFF6382002F0E4FBA6
:10187000607810B16078012800D105E040F2DC41C9
:10188000AFF6502002F0D8FB4FF00005E0780128B9
:101890000ED145F010056079012801D145F02005F1
:1018A0002079012801D145F00805E07986F8540037
:1018B0002078012801D145F00105A078012804D144
:1018C00045F00405A07986F85000607808B945F025
:1018D000020505F03F0086F84C00307B40F03800F0
:1018E000307370BD012906D190F84C2022F002021D
:1018F00080F84C2005E090F84C2042F0020280F87D
:101900004C2070472DE9F0470446894692461F4611
:10191000A7B1257BA84628F0100884F80C804FF06A
:101920000103524649462046FFF780FB064600BFAA
:10193000207D10F0400FFBD025730BE001235246B1
:1019400049462046FFF772FB064600BF207D10F097
:10195000400FFBD03046BDE8F08713B504464FF08A
:1019600001031A4601A92046FFF7CCFF1CBD70B544
:1019700004460D4616464FF00003324629462046DF
:10198000FFF7C0FF70BD000000000140F0B5044645
:101990000B46154619464FEA4400454A102903D321
:1019A000A1F1100100F1010052F820604FEA410C52
:1019B0004FF0030707FA0CF726EA070642F8206003
:1019C00052F820604FEA410705FA07F746EA070692
:1019D00042F82060F0BDF0B504460B4615461946A6
:1019E0004FEA4400334A102903D3A1F1100100F15A
:1019F000010052F820604FEA410C4FF0030707FA4C
:101A00000CF726EA070642F8206052F820604FEAF9
:101A1000410705FA07F746EA070642F82060F0BDDD
:101A200030B50B462449012A0AD151F820404FF025
:101A3000010505FA03F544EA050441F8204009E0F0
:101A400051F820404FF0010505FA03F524EA05049A
:101A500041F8204030BD012806D11549896A41F07E
:101A60000801134A916206E028B91149896A21F0F8
:101A700008010F4A91627047012801D14FF0050219
:101A800009B94FF00A020A4BDA67704710B50446ED
:101A9000A27861782078FFF779FFE2786178207882
:101AA000FFF799FF227961782078FFF7B9FF10BD21
:101AB00000C0024040C0024068C0024010B50A4663
:101AC000202801D2034601E0A0F120031946202876
:101AD00014D24C4B1B684FF0030404FA01F423EAC0
:101AE0000403494CC4F8A831464B1B6802FA01F4C0
:101AF00043EA0403444CC4F8A83113E0434B1B6889
:101B00004FF0030404FA01F423EA04033E4CC4F842
:101B1000AC313E4B1B6802FA01F443EA04033A4C31
:101B2000C4F8AC3110BD0146202903D20A46354B1A
:101B3000186803E0A1F12002344B186820FA02F380
:101B400003F00300704770B506463148046830461C
:101B5000FFF7E9FF054635B1012D07D0022D08D06A
:101B6000032D0CD108E04FF0040508E04FF001050B
:101B700005E04FF0020502E04FF0080500BF00BF8E
:101B8000B4FBF5F4204670BD01290AD1214A126840
:101B9000214B00EA030342EA03021B4BC3F8C420B3
:101BA0000AE049B91B4A12681B4B23EA000302EA08
:101BB0000302154BC3F8C42070474FF000001749CB
:101BC000086030BF70474FF00400154908604FF0BF
:101BD00008001249086030BF70474FF004001049F8
:101BE00008604FF009000D49086030BF70474FF0A2
:101BF00004000B4908604FF003000849086030BF3B
:101C000070470000A8C10F4000C00F40ACC10F409A
:101C100000000010C4C00F40DEF7EFEFC0C00F405F
:101C200010ED00E02DE9F84F05460E464FF0000795
:101C300038460090FE48854202D0FE48854200D1D9
:101C400003E05521FCA002F0F7F9F948854204D1E0
:101C50001A20FFF778FF009003E01C20FFF773FFC6
:101C600000900098B0FBF6F74FF0010A4FF018040F
:101C700023E0B7FBF4F004FB1070D8B9B7FBF4F025
:101C8000A0F1010BA4F10100C4B24FF0030094FBDA
:101C9000F0F0A0F1010000F0FF094FF0030094FB09
:101CA000F0F0A4EB0000A0F1010000F0FF084FF0FD
:101CB000000A04E0A4F10200C4B2002CD9DC00BF89
:101CC000BAF1000F01D000BFFEE74FF0010028601D
:101CD0004FEA095040EA084040F4404040EA0B0017
:101CE00068614FF000002860BDE8F88F2DE9F041F1
:101CF00004460E46CE48844202D0CE48844200D1EB
:101D000003E09221CCA002F097F9C948844204D1A3
:101D100001214803FFF738FF03E001218803FFF7A3
:101D200033FF02211A20FFF7C9FE02211C20FFF712
:101D3000C5FE02211E20FFF7C1FE4FF0010020600A
:101D40004FF000002061A0604FF00E006060E76877
:101D50004FF0000020604FF00100C64908604FF0CE
:101D6000000507E04FF00000C34941F8250005F1E8
:101D7000010085B2B5F5007FF4DB4FF00000BD49EE
:101D800048608860C8600861486108603146204644
:101D9000FFF748FFBDE8F08110B50446A44884422F
:101DA00002D0A448844200D103E0CA21A2A002F0DC
:101DB00043F99F48844205D100214FF40050FFF7BA
:101DC000E3FE04E000214FF48040FFF7DDFE10BD8C
:101DD0002DE9F34F89B00C464FF00005A54909984D
:101DE000884200D103E0EC2193A002F025F94FF0E6
:101DF000010109980160206820B94FF000009F4957
:101E00000870BBE04FF001009C4908704FF00009DA
:101E1000B0E0681C402803DD02200BB0BDE8F08F65
:101E2000206806782068B0F80280206847780EB9EC
:101E3000012000E00020012E01D1012100E000215D
:101E4000084300D004E040F201117BA002F0F4F856
:101E50005FEAE82000D104E04FF4817176A002F03F
:101E6000EBF80FB9012000E00020012F01D1012182
:101E700000E00021084300D004E040F203116EA00E
:101E800002F0DAF84FF0000B7D48008810F0010FE7
:101E900037D195B1A5F10100774951F8200005909F
:101EA0004EF2FF71059800EA0100079048EA4631BA
:101EB0000798814201DA0520AFE74FEA467040EA11
:101EC000077040EA084040F0006B6B4850F825006E
:101ED00080B2694941F82500084650F8250040EADB
:101EE0000B0041F825006648008800F101006449B4
:101EF000088020790988884234D105F1010085B233
:101F000030E05D4850F8250005904EF2FF710598CD
:101F100001EA1040079048EA46310798814201DA09
:101F200005207AE74FEA463040EA073040EA0800E9
:101F300040F4006B504850F825006FF30F004E49F5
:101F400041F82500084650F8250040EA0B0041F80A
:101F5000250005F1010085B24948008800F1010023
:101F600047490880206800F10400206009F1010061
:101F70001FFA80F9207948453FF74BAFA068002849
:101F800054D04FF00009DCE0681CB0F5007F01DDA3
:101F9000022042E7A0680678A068B0F80280A06836
:101FA00047780EB9012000E00020012E01D1012167
:101FB00000E00021084300D004E040F237111EA0E9
:101FC00002F03AF85FEAE82000D104E04FF49C7197
:101FD00019A002F031F80FB9012000E00020012F14
:101FE00001D1012100E00021084300D004E040F2CB
:101FF000391111A002F020F84FF0000B21480088A1
:1020000010F0010F66D11F48008880B1A5F10100D2
:10201000194951F8200005904EF2FF71059800EA29
:102020000100079048EA463107982DE08DE02FE047
:1020300000400440008004402E2E5C4C69627261B6
:10204000726965735C4C4350313736385F53746442
:102050005065726970685F4472697665725C736F0F
:10206000757263655C6C7063313778785F63616E3D
:102070002E63000000C003400080034036000010C3
:102080002C0000102E000010814201DA0520C4E669
:102090004FEA467040EA077040EA084BFE4850F8A5
:1020A000250080B2FC4941F82500084650F825007B
:1020B00040EA0B0041F82500F848008800F10100D3
:1020C000F6490880207B0988884232D105F1010059
:1020D00085B22EE0F04850F8250005904EF2FF71D1
:1020E000059801EA1040079048EA46310798814276
:1020F00001DA052091E64FEA463040EA073040EA2F
:10210000080BE54850F825006FF30F00E24941F84D
:102110002500084650F8250040EA0B0041F825004C
:1021200005F1010085B2DD48008800F10100DB49BE
:102130000880A06800F10400A06009F101001FFA06
:1021400080F9207B48453FF71FAF2069002872D0F7
:102150004FF00009B8E0681CB0F5007F01DD0220F7
:102160005BE620690678206990F804A0206947782A
:102170002069407908902069408804902069C088CF
:1021800003900EB9012000E00020012E01D10121B1
:1021900000E00021084300D005E040F27111AFF2E9
:1021A000681001F049FFBAF1000F01D1012000E0F1
:1021B0000020BAF1010F01D1012100E00021084304
:1021C00000D005E04FF4B971AFF2941001F034FF84
:1021D0000FB9012000E00020012F01D1012100E012
:1021E0000021084300D005E040F27311AFF2B810AF
:1021F00001F022FF089808B9012000E000200899AA
:10220000012900D100E00021084300D005E04FF48F
:10221000BA71AFF2DC1001F00FFF0498C01200D1C8
:1022200005E040F27511AFF2F01001F005FF0398E0
:10223000C01201D106E04BE04FF4BB71AFF20820B1
:1022400001F0FAFE4FF0000B95480088C8B1A5F1E7
:102250000100914951F8200005904EF2FF71059858
:1022600000EA01000790564509D1DDE903108842D4
:1022700005DC049840EA46310798814201DA0520DE
:10228000CBE54FEA467040EA0771049841EA004006
:1022900040EA4A31089841EA0030039940EA010BCC
:1022A0007D4840F825B07E48008800F101007C4957
:1022B000088005F1010085B2206900F10800206165
:1022C00009F101001FFA80F9207D48453FF743AF2F
:1022D000A069002851D04FF000094BE0681CB0F510
:1022E000007F01DD022098E5A06940680690A069A2
:1022F00006780698400F00D105E04FF4CC71AFF29C
:10230000C82001F099FE0EB9012000E00020012E46
:1023100001D1012100E00021084300D005E040F296
:102320009911AFF2EC2001F087FE069840EA467B57
:102330005C48008850B1A5F10100574951F82000D0
:1023400005900598584501D9052066E5524840F8A2
:1023500025B05448008800F101005249088005F179
:10236000010085B2A06900F10800A06109F1010037
:102370001FFA80F9207F4845B0DC206A00287DD014
:102380004FF0000994E0A81CB0F5007F01DD0220A9
:1023900043E5206A0678206A90F801A0206A406828
:1023A0000290206A806801900EB9012000E00020B0
:1023B000012E01D1012100E00021084300D005E0F9
:1023C00040F2BB11AFF2903001F036FEBAF1000FCF
:1023D00001D1012000E00020BAF1010F01D101215B
:1023E00000E00021084300D005E04FF4DE71AFF2B9
:1023F000B83001F021FE0298400F00D105E040F214
:10240000BD11AFF2CC3001F017FE0198400F00D1A2
:1024100005E04FF4DF71AFF2E03001F00DFE4FF058
:10242000000B2148008898B1A5F101001A4951F824
:1024300020000590564509D1DDE90110884205D8F4
:10244000029840EA46710598814201D20520E4E4F1
:10245000029840EA467B284605F101018DB20E49FB
:1024600041F820B0019840EA4A7B284605F1010175
:102470008DB2094941F820B00B4800E01DE000880A
:1024800000F1010008490880206A00F10C00206278
:1024900009F101000AE00000008003402E00001056
:1024A0003000001032000010340000101FFA80F9D4
:1024B00094F8240048453FF766AFF748008800F1DC
:1024C00001004FEA60004FEA8000F4494860084686
:1024D0004168F348008800F101004FEA600001EB19
:1024E0008000EE49886008468068EE49098800EB64
:1024F0008100EA49C8600846C068EB49098800EBDA
:102500008100E649086108460069E849098800EB4E
:10251000C100E2494861E648007818B94FF0000070
:10252000086003E04FF00400DC490860012074E417
:102530002DE9FC5F80460D4693464FF00000019068
:10254000074681460446064682460090D9488045A3
:1025500002D0D948804500D105E04FF4FC71AFF2BC
:10256000285001F069FDBBF1000F02D0BBF1010F53
:1025700000D105E040F2F911AFF2445001F05CFDEA
:10258000CC48804503D14FF00000019005E0CA48D7
:10259000804502D14FF001000190BF48008800EB58
:1025A0004001BD48008800F1010001EB6001BC481A
:1025B000008800F1010001EB6000BA490988084475
:1025C000B94909880844B949098800EB410000B2BB
:1025D00000900098B0F5007F02DB0220BDE8FC9F70
:1025E0004FF00100AD490860BBF1000F7ED1C5F38B
:1025F0000A05019845EA4035A948008810F0010F06
:1026000025D1A548008800F101004FEA6001A448E7
:10261000008800F1010001EB600004B20098A0EB1B
:1026200004000FFA80FAA54850F8247008E004F17D
:10263000010004B2A14850F8249040F824704F469D
:102640005FEA0A00AAF101010FFA81FAEFD194487A
:10265000008870B99048008800F101004FEA6000DE
:1026600006B24FF6FF7040EA0540944941F8260053
:10267000C2E08B480088012825D18748008800F1F6
:1026800001004FEA600006B28C4850F826004EF276
:10269000FF7101EA1040A8420AD9884850F8260084
:1026A0004FEA104040EA0540844941F82600A3E083
:1026B000824850F826006FF30F0040EA05007F497A
:1026C00041F8260098E07448008800F101004FEAC4
:1026D000600004B27248008806B26F48008800F1BA
:1026E00001004FEA60016E48008800E0A0E000F1C0
:1026F000010001EB60000FFA80FA1DE06F4850F80E
:1027000024004EF2FF7101EA1040A84203D94FEABB
:10271000440006B212E0694850F824004EF2FF71FE
:102720000840A84205D94FF0010000EB440006B272
:1027300004E004F1010004B25445DFDB00BF54455E
:1027400017D15748008810F0010F07D14FF6FF70DE
:1027500040EA0540594941F824004DE0574850F8F7
:1027600024006FF30F0040EA0500544941F82400AB
:1027700042E0524850F8247016F0010F04D14FEA9D
:10278000054040EA174905E04FEA17404FEA00408C
:1027900040EA0509494840F824903F48008800F184
:1027A00001004FEA60013E48008800F1010001EBA2
:1027B0006000A0F101000FFA80FA0DE004F10100C1
:1027C00004B23E4850F824904FEA194040EA0740CE
:1027D0003A4941F824004F465445EFDB3048008821
:1027E00010F0010F08D14FF6FF7000EB074104F124
:1027F0000100324A42F820102948008800F1010007
:10280000274908802548806800F104002349886032
:102810000846C06800F10400C8600846006900F17D
:10282000040008610846406900F10400486160E066
:10283000019845EA40751B4801881948008800F155
:10284000010001EB60011448008800F1010001EB78
:10285000600004B24FF000060BE0184850F8240066
:10286000A84200D909E004F1010004B206F1010018
:1028700006B20D4800888642EFDB00BF0F4850F8D3
:10288000247040F824500848008800F101000649EF
:102890000880DDF800A01FE02C00001000C00340FD
:1028A0002E00001030000010320000103400001024
:1028B00036000010004004400080044000800340C7
:1028C00004F1010004B206F1010006B2F94850F823
:1028D000249040F824704F465645F1DBF6480069D5
:1028E00000F10400F44908610846406900F1040061
:1028F0004861F248008820B94FF00000EE490860B6
:1029000003E04FF00400EC490860012066E62DE981
:10291000F04F87B006460D464FF000000690074680
:1029200080460590049003900290044683468146B9
:102930008246E348864202D0E248864200D105E062
:1029400040F2CA21AFF6101001F076FBDC48864257
:1029500003D14FF00000069005E0DA48864202D12C
:102960004FF001000690D548008800EB4001D348A5
:10297000008800F1010001EB6001D348008800F1FC
:10298000010001EB6000D14909880844D049098859
:102990000844D049098800EB41000FFA80FABAF5E3
:1029A000FE7F03DAC5480088402803DB022007B019
:1029B000BDE8F08F4FF00100BF490860C5F30A057C
:1029C0004FF40061069841EA403040EA050085B2C4
:1029D000BA48008810F0010F1BD1BAF1000F18D0CF
:1029E000B64800884FEA6004D146B24850F82470D7
:1029F00008E004F1010004B2AE4850F8248040F829
:102A0000247047465FEA0900A9F101010FFA81F934
:102A1000EFD1AA48008830B94FF6FF7040EA054070
:102A2000A4490860B5E0A5480088012819D1A1484B
:102A300000684EF2FF7101EA1040A84208D99D4893
:102A400000684FEA104040EA05409A490860A0E05B
:102A5000984800686FF30F0040EA05009549086048
:102A600097E04FF00004954800880FFA80FB9348E8
:102A70000088A0F101004FEA60000FFA80F932E00F
:102A80008C4850F824004EF2FF7101EA104001908A
:102A9000884850F8240001EA10414EF2FF7005EA20
:102AA0000000814204D94FEA44000FFA80FB1CE089
:102AB000804850F824004EF2FF7100EA01000190B6
:102AC0007C4850F8240000EA010005EA0101884230
:102AD00006D94FF0010000EB44000FFA80FB04E040
:102AE00004F1010004B24C45CADD00BF4C4517DDBE
:102AF0007248008810F0010F07D14FF6FF7040EACE
:102B000005406C4941F8240043E06A4850F824002D
:102B10006FF30F0040EA0500664941F8240038E0F1
:102B2000644850F824701BF0010F04D14FEA0540AF
:102B300040EA174805E04FEA17404FEA004040EAF4
:102B400005085C4840F824805C4800884FEA60092A
:102B50000DE004F1010004B2564850F824804FEA19
:102B6000184040EA0740534941F8240047464C4585
:102B7000EFDB5248008810F0010F0AD14D4850F8A1
:102B800024006FF30F004FF6FF710844494941F8E4
:102B900024004A480088A0EB0B000FFA80F9474850
:102BA000008800EB4000AAEB00000BEB4B0108444F
:102BB00000F1010004B23F4850F8247004F1010014
:102BC0003C4951F8208004F1020051F820000590A2
:102BD0004FF0000104F10200364A42F8201004F1DF
:102BE000010042F8201042F8241004F1030004B25E
:102BF00023E0304850F82400049004F101002D49EE
:102C000051F82000039004F1020051F820000290D6
:102C1000084640F8247004F1010041F8208004F1D6
:102C20000201244A059842F82100049FDDF80C8037
:102C30000298059004F1030004B25FEA0900A9F1CB
:102C400001010FFA81F9D4D11C48008800F101007C
:102C50001A4908801848406800F104001649486085
:102C60000846806800F1040088600846C06800F1EA
:102C70000400C8600846006900F1040008610846C5
:102C8000406900F1040048614FF0040008604FF013
:102C900001008CE62DE9FF4F85B00F4690464FF0BE
:102CA000000B07490598884203D0064905988842D9
:102CB00012D117E00080034000C003402C00001038
:102CC00000400440008004402E000010300000103E
:102CD000320000103400001040F28731AFF6A840F7
:102CE00001F0AAF9089810B10898012800D105E070
:102CF0004FF46271AFF6C04001F09EF9474503D929
:102D0000062009B0BDE8F08FF7490598884202D146
:102D10004FF0000B01E04FF0010BF448008800EB8E
:102D20004001F248008800F1010001EB6001F04829
:102D3000008800F1010001EB6000EE4909880844B9
:102D4000ED4909880844ED49098800EB410000B2CB
:102D500001904FF00100EA4908600898002874D1FA
:102D60000198B0F5007F01DB0220CAE7C7F30A072C
:102D7000C8F30A084FEA4B7040EA074040EA4B307C
:102D800040EA0805D948008800F101004FEA6001D7
:102D9000D748008800F1010001EB600004B2D5487B
:102DA000008818B9D74840F8245060E0CF48008820
:102DB00000F101004FEA6001CD48008800F10100F8
:102DC00001EB6000CB490988084406B22EE002E01E
:102DD00004F1010004B2CB4850F82400400FB0EBDE
:102DE000557FF5D3C74850F8249050F824004FEA97
:102DF0005070B0EB557F03D9C24840F8245017E01B
:102E0000C9F30A400390C9F30A0002900398804571
:102E100003D8BC4840F824500AE00298874203D304
:102E200004F1010004B201E006206AE7B442CEDBFF
:102E300000BFB44204DBB34850F8249040F824505B
:102E40000198A0EB040006B20CE027E004F10100B9
:102E500004B2AC4850F824000490AA4840F82490EA
:102E6000DDF810903000A6F101010EB2EED1A148BC
:102E7000008800F101009F490880A148C06800F166
:102E800004009F49C8600846006900F10400086119
:102E90000846406900F104004861D0E00198B0F5AF
:102EA000FF7F01DD02202CE727F0604728F0604813
:102EB00047EA4B7548EA4B7A8C48008800F10100DC
:102EC0004FEA60018A48008800F1010001EB6000D0
:102ED00088490988084488490988084404B2874811
:102EE000008840B9874840F8245004F10100854922
:102EF00041F820A097E07D48008800F101004FEAEA
:102F000060017B48008800F1010001EB6000794915
:102F1000098808447849098808447849098800EBF9
:102F2000410006B242E002E004F1010004B275483B
:102F300050F82400BBEB507FF6D8724850F824902C
:102F400004F101006F4951F820000490084650F840
:102F500024004FEA5070B0EB557F09D9084640F87D
:102F6000245004F1010000B2044641F820A01FE003
:102F700029F060400390049820F06040029003988C
:102F800080450AD85F4840F8245004F1010000B29F
:102F900004465C4941F820A00AE00298874203D326
:102FA00004F1020004B201E00620AAE6B442BADB52
:102FB00000BFB44211DB534850F8249004F10100E3
:102FC000504951F820000490084640F8245004F17C
:102FD000010000B2044641F820A00198A0EB0400D3
:102FE00000F1010006B204F1010004B219E0454805
:102FF00050F8245004F10100424951F820A008463D
:1030000040F8249004F101013E4A049842F821005E
:10301000A946CDF810A004F1020004B2A6F1020006
:1030200006B2002EE3DC3548008800F10100334988
:1030300008803348406900F10800314948614FF089
:1030400004002F4908604FF001005AE62DE9F047CF
:1030500080460D46B8F1000F0BD0B8F1010F08D033
:10306000B8F1020F05D0B8F1030F02D0B8F1040F88
:1030700000D104E04FF48A61234800F0DDFF002D09
:1030800003DBB5F5007F00DA04E040F251411E4851
:1030900000F0D2FF4FF00100194908601348008882
:1030A00000F101004FEA60011148008800F10100C1
:1030B00001EB60000F49098808440F49098808445A
:1030C0000E49098800EB41001FFA80FAB8F1000FA1
:1030D00073D10648008818B104480088854215DB82
:1030E0000720BDE8F0870000004004402C000010DD
:1030F0002E000010300000103200001034000010CC
:1031000000C0034000800340382000004FEA6504FF
:10311000FC4850F82490FC480088A0EB0500A0F182
:103120000100C0F34F0615F0010F15D10EE004F1B8
:103130000100F44951F820704FEA174040EA094075
:1031400041F82400B94604F1010084B23000A6F130
:1031500001018EB2EBD120E01AE004F10100E9494F
:1031600051F820704FEA19404FEA004040EA1740FA
:1031700041F8240004F1010051F820004FEA004119
:1031800004F10100DF4A42F820104FEA074984B2F7
:103190003000A6F101018EB2DFD1DB48008810F0CB
:1031A000010F13D115F0010F08D14FF6FF7000EB9E
:1031B0000940D44941F8240043E078E04FF6FF701D
:1031C00049EA0000CF4941F824003AE0CE4800889F
:1031D00000F101004FEA6004CB48008800EB40009A
:1031E000504486B20AE0C74850F82410A4F1010008
:1031F000C44A42F8201004F1010084B2A642F2DC75
:103200004FF00001A4F10100BE4A42F82010BF486F
:103210004068A0F10400BD49486008468068A0F1FC
:10322000040088600846C068A0F10400C860084631
:103230000069A0F10400086108464069A0F104009B
:103240004861B1480088A0F10100AF49088005EB52
:103250004500504484B208460088A0EB050000F108
:10326000010000EB400086B21EE004F10300A54916
:1032700051F8200041F8240004F1040051F8201016
:1032800004F101009F4A42F8201004F105001146A4
:1032900051F8201004F1020042F82010A6F10300BA
:1032A00086B204F1030084B2002EDED194E1B8F1BD
:1032B000010F6ED19648008818B195480088854264
:1032C00001DB07200DE79048008800F101004FEA7C
:1032D000600000EB650084B28A4850F824908C4866
:1032E0000088A0EB0500A0F10100C0F34F0615F027
:1032F000010F15D10EE004F10100824951F8207050
:103300004FEA174040EA094041F82400B94604F169
:10331000010084B23000A6F101018EB2EBD120E0B1
:103320001AE004F10100774951F820704FEA194082
:103330004FEA004040EA174041F8240004F1010040
:1033400051F820004FEA004104F101006D4A42F8B3
:1033500020104FEA074984B23000A6F101018EB275
:10336000DFD16B48008810F0010F13D115F0010F69
:1033700007D14FF6FF7000EB0940624941F8240085
:1033800045E04FF6FF7049EA00005E4941F824002D
:103390003DE043E05C48008800F101004FEA600135
:1033A0005B48008800F1010001EB600084B25648E0
:1033B000008800EB4000504486B20AE0514850F8C3
:1033C0002410A4F101004F4A42F8201004F101003A
:1033D00084B2A642F2DC4FF00001A4F10100494A98
:1033E00042F8201049488068A0F1040047498860ED
:1033F0000846C068A0F10400C86008460069A0F152
:103400000400086108464069A0F104004861404892
:103410000088A0F101003E490880DDE0B8F1020F0C
:103420004AD13C48008818B13A480088854201DBFF
:10343000072056E63448008800F101004FEA600199
:103440003348008800F1010001EB6000284400F1DE
:10345000010084B22C48008800EB4000504486B242
:103460000AE0284850F82410A4F10100254A42F847
:10347000201004F1010084B2B442F2DB4FF00001ED
:10348000A4F101001F4A42F8201022480088A0F150
:103490000100204908801D48C068A0F104001B49B4
:1034A000C86008460069A0F1040008610846406948
:1034B000A0F1040048618FE0B8F1030F54D1164821
:1034C000008818B114480088854201DB072008E60F
:1034D0000D48008800F101004FEA60010C480088A7
:1034E00000F1010001EB60000A4909880844284402
:1034F00000F1010084B20448008800EB4000504411
:1035000086B216E0008003402C00001000C003408B
:103510002E0000103000001032000010FE4850F85D
:103520002410A4F10100FC4A42F8201004F101002B
:1035300084B2B442F2DB4FF00001A4F10100F64A7C
:1035400042F82010F5480088A0F10100F3490880F6
:10355000F3480069A0F10400F14908610846406998
:10356000A0F10400486137E0EE48008818B1ED484A
:103570000088854201DB0720B3E5EA480088AAEB12
:10358000400000EB450084B2E748008800EB4000B3
:10359000504486B212E004F10200DF4951F82000E5
:1035A00041F8240004F1030051F8201004F1010057
:1035B000D94A42F8201004F1020084B2B442EADB96
:1035C000D8480088A0F10100D6490880D448406955
:1035D000A0F10800D24948614FF00400D0490860CA
:1035E0004FF001007DE570B504460D46CF4884429A
:1035F00002D0CF48844200D104E040F23F51CD4890
:1036000000F01AFD687B10B1687B012800D104E04E
:103610004FF4A861C74800F00FFD687B48B92868DF
:10362000C00A00D10EE040F24351C24800F004FD50
:1036300008E02868400F00D104E040F24751BD483F
:1036400000F0FAFC287B001100D104E040F249515F
:10365000B84800F0F1FCA87B10B1A87B012800D18C
:1036600004E040F24A51B34800F0E6FCE06910F093
:10367000040F3ED0206B20F470202063206B297B48
:1036800040EA01402063A87B012804D1206B40F070
:103690008040206303E0206B20F080402063687B43
:1036A000012804D1206B40F00040206303E0206B30
:1036B00020F000402063286860632979687941EA36
:1036C0000021A87941EA0041E87941EA0066A66351
:1036D000297A687A41EA0021A87A41EA0041E87A29
:1036E00041EA0066E6634FF0210060604FF00100A0
:1036F00070BDE06910F4806F3ED0206C20F4702023
:103700002064206C297B40EA01402064A87B0128CA
:1037100004D1206C40F08040206403E0206C20F055
:1037200080402064687B012804D1206C40F0004078
:10373000206403E0206C20F000402064286860646E
:103740002979687941EA0021A87941EA0041E879BC
:1037500041EA0066A664297A687A41EA0021A87ADB
:1037600041EA0041E87A41EA0066E6644FF0410030
:1037700060604FF00100BBE7E06910F4802F3ED09D
:10378000206D20F470202065206D297B40EA0140E7
:103790002065A87B012804D1206D40F08040206581
:1037A00003E0206D20F080402065687B012804D173
:1037B000206D40F00040206503E0206D20F00040C7
:1037C0002065286860652979687941EA0021A8792F
:1037D00041EA0041E87941EA0066A665297A687AFB
:1037E00041EA0021A87A41EA0041E87A41EA00660C
:1037F000E6654FF0810060604FF0010078E700203F
:1038000076E770B505460C464848854202D04848E0
:10381000854200D104E040F2D951464800F00CFC4A
:10382000E86910F0010F2FD0286A4FEAD07060735A
:10383000286AC0F38070A073286AC0F30340207325
:10384000686A2060A07BC8B9AE6A26714FEA16216B
:1038500061714FEA1641A1714FEA1661E171EE6A9A
:1038600026724FEA162161724FEA1641A1724FEAA1
:103870001661E1724FF00400686007E04FF0040049
:1038800068604FF0010070BD0020FCE70120FAE7FE
:103890002DE9F35F0C4622490098884200D104E0EC
:1038A00040F21B61234800F0C7FB4FF000071C48A3
:1038B000406A30B11A48476A4FF000094FF01F0ABA
:1038C00008E01748806A28B11548876A4FF0200938
:1038D0004FF03F0A002F63D04FF00008C8465DE06C
:1038E00007F0010B4FEA5707BBF1000F54D00C480B
:1038F00040690949084408EB480100EB8105286844
:1039000000F04070B0F1407F46D1286820F0407050
:10391000286005F104050FE000800340320000102C
:1039200000C00340340000102C0000100040044090
:1039300000800440382000002E6826714FEA1621CE
:1039400061714FEA1641A1714FEA1661E17105F10B
:1039500004052E6826724FEA162161724FEA16415D
:10396000A1724FEA1661E172A5F108052868C0F35B
:103970000A0020602868C0F3034020734FF0000065
:1039800060732868C0F38070A073286810F0407FCF
:1039900002D10120BDE8FC9F08F10108D0459FD964
:1039A0000320F7E770B504460D46E548844202D08F
:1039B000E448844200D104E040F27161E24800F042
:1039C0003BFB2DB1012D03D0022D01D0032D00D1E1
:1039D00004E040F27261DC4800F02EFB25B1012DBD
:1039E00004D0022D06D103E0A06870BDE068FCE7BA
:1039F000A069FAE7E069F8E770B504460D46D348D8
:103A0000844200D104E040F28F61CF4800F014FB03
:103A10001DB1012D01D0022D00D104E04FF4D2617F
:103A2000C94800F009FB15B1012D04D101E020685F
:103A300070BD6068FCE7A068FAE770B505460C4603
:103A40001646BF48854202D0BE48854200D104E0F8
:103A50004FF4D761BC4800F0EFFAACB1012C13D0A1
:103A6000022C11D0032C0FD0042C0DD0052C0BD020
:103A7000062C09D0072C07D0082C05D0092C03D020
:103A80000A2C01D00B2C00D104E040F2B961AE4801
:103A900000F0D2FA0EB1012E00D104E040F2BA617A
:103AA000A94800F0C9FA012E13D10B2C08D14FF010
:103AB0000100A749086008624FF0040008601BE09D
:103AC00028694FF0010101FA04F140EA0100286180
:103AD00012E00B2C08D14FF001009D4908600862EC
:103AE0004FF00000086007E028694FF0010101FA7B
:103AF00004F120EA0100286170BD70B505460C464E
:103B00009348854200D104E040F2DF618E4800F026
:103B100093FA2CB1012C03D0022C01D0032C00D13C
:103B200004E04FF4DC61884800F086FA34B1012CDF
:103B300008D0022C0AD0032C10D10BE04FF000006B
:103B400028600BE04FF00100286007E04FF0020012
:103B5000286003E04FF00400286000BF00BF70BD84
:103B600070B504460D4616467548844202D0754825
:103B7000844200D104E04FF4E161734800F05CFA44
:103B80006DB1012D0BD0022D09D0032D07D0042DCE
:103B900005D0052D03D0062D01D0072D00D104E05E
:103BA00040F20971684800F047FA0EB1012E00D1C9
:103BB00004E040F20A71644800F03EFA082D6DD22C
:103BC000DFE805F0040814283C4854604FF000007A
:103BD000206063E0012E04D1206840F001002060E5
:103BE00003E0206820F00100206057E0206840F0EA
:103BF00001002060012E04D1206840F00200206006
:103C000003E0206820F002002060206820F001001E
:103C1000206043E0206840F001002060012E04D1C4
:103C2000206840F00400206003E0206820F00400D9
:103C30002060206820F0010020602FE0012E04D1D8
:103C4000206840F00800206003E0206820F00800B1
:103C5000206023E0012E04D1206840F01000206095
:103C600003E0206820F01000206017E0012E04D14E
:103C7000206840F02000206003E0206820F0200051
:103C800020600BE0012E04D1206840F0800020600D
:103C900003E0206820F08000206000BF00BF70BDFE
:103CA00070B504460D462648844202D02548844219
:103CB00000D104E040F25371234800F0BDF9606880
:103CC00040EA0500606070BD10B504461C4884429F
:103CD00002D01C48844200D104E04FF4EC611A4841
:103CE00000F0AAF9E06810BD10B5044618488442F7
:103CF00000D104E040F26D71134800F09DF9206A94
:103D000008B1012010BD0020FCE770B504460D4647
:103D10000F48844200D104E040F27D710A4800F06F
:103D20008BF90DB1012D00D104E040F27E710648FF
:103D300000F082F90DB9606A70BDA06AFCE700006E
:103D4000004004400080044038200000000004408F
:103D500000C0034070B50446B8A1BD48BD4A126812
:103D60009047BB48BC4A216812689047B7A1B84841
:103D7000BA4A12689047BAA1B548B64A1268904745
:103D8000217BB348B44A12689047BAA1B048B34AFD
:103D900012689047B9A1AE48AE4A12689047A07B1E
:103DA00028B9BBA1AA48AD4A1268904704E0BBA15C
:103DB000A748AA4A12689047BCA1A548A54A12681C
:103DC0009047607B28B9BEA1A148A44A12689047D9
:103DD00004E0C2A19E48A14A12689047C6A19C482F
:103DE0009C4A126890472179607941EA0021A079C4
:103DF00041EA0041E07941EA006529469448964A43
:103E00001268904791A19248944A12689047217A8B
:103E1000607A41EA0021A07A41EA0041E07A41EA71
:103E20000065BAA18A488B4A12689047294688489B
:103E3000894A1268904785A18548884A1268904748
:103E400082A18348854A1268904770BD70B5B44816
:103E5000FFF73AFFC5B215F0010F3AD0B149B048AB
:103E6000FFF7CFFCAF48FFF775FFAF48006800F1E0
:103E70000100AD490860AD48006800F10100AB49A0
:103E8000086008460179407941EA0021A748807915
:103E900041EA0041A548C07941EA0064601C01D1B3
:103EA000044601E004F10104E0B2A049087208717F
:103EB000C4F307219D4841724171C4F307418172E7
:103EC00081714FEA1461C172C17101469848FFF7D0
:103ED0008AFB70BD4FF001009449487341F23420D1
:103EE00008604FF0080008734FF000008873014627
:103EF0008E48C171817141710171C17281724172CB
:103F00000172084687494873086008738873014640
:103F10008448C171817141710171C17281724172B4
:103F20000172704710B5834949484C4A126890475E
:103F300010BD1CB5FCF704FDFFF7F4FF4FF00100C6
:103F40008DF802004FF000008DF804008DF803009A
:103F50008DF800008DF801006846FDF797FD4FF0E1
:103F600001008DF801006846FDF790FD4FF002005A
:103F70008DF802004FF004008DF801006846FDF74F
:103F800085FD4FF005008DF801006846FDF77EFDC8
:103F900069496748FDF7AAFE67496148FDF7A6FE33
:103FA000012200215E48FFF748FD4FF019004FF055
:103FB000010101FA00F14FEA50124FF0E02303EB48
:103FC0008202C2F8001100BF5CA12148234A126896
:103FD000904763A11E48214A126890471BA11C48C4
:103FE0001E4A1268904700BF194867490968884708
:103FF0003128F9D102216548FFF77FFDFFF76AFFFD
:104000004A48FFF7A7FE62A11148144A1268904778
:104010006DA10F48114A1268904700BF0C485A49D9
:10402000096888473228F9D140494148FFF7DBFA4F
:1040300000BFFEE7FFF77DFF00BFFEE74D6573732E
:104040006167652049443A202020202000000000BC
:1040500000C0004004000010240000100800001000
:104060004D657373616765206C656E6774683A208F
:104070000000000020425954455300004D65737301
:1040800061676520747970653A2020200000000087
:1040900044415441204652414D45200052454D4F28
:1040A0005445204652414D45200000004D65737334
:1040B00061676520666F726D61743A2000000000D0
:1040C0005354414E44415244204944204652414DAC
:1040D0004520464F524D415400000000455854457C
:1040E0004E444544204944204652414D4520464FC8
:1040F000524D4154000000004D65737361676520A7
:1041000064617461413A2020000000004D657373C2
:104110006167652064617461423A202000000000FC
:1041200000800440E0030010C4010010D003001020
:10413000004004403800001048E8010043414E2090
:104140007465737420427970617373204D6F646578
:104150002066756E6374696F6E2E2E2E000000004F
:1041600050726573732027312720746F20696E6940
:104170007469616C697A652043414E206D65737383
:104180006167652E2E2E00002800001000C003403D
:104190004D65737361676520494420616E642064D6
:1041A0006174612077696C6C20626520696E63724E
:1041B000656173656420636F6E74696E756F757386
:1041C0006C792E2E2E0000005072657373202732FA
:1041D0002720746F2073746172742043414E206FE6
:1041E0007065726174696F6E2E2E2E002248006811
:1041F00000F1010020490860704730B51F48006891
:104200004FF47A72B0FBF2F0A0F10101B1F1807FBE
:1042100000D327E021F07F40A0F101004FF0E02221
:1042200050614FF0FF304FF01F0200280ADA4FEACA
:10423000C2634FEA1365124B00F00F04A4F10404AB
:104240001D5505E04FEAC2634FEA13640D4B1C5441
:1042500000BF4FF000004FF0E02290614FF00700E8
:10426000106100BF30BD044A116800BF024A1268E5
:10427000521A8242FAD37047C801001000000010A1
:1042800018ED00E000E400E053EA020C00F0698061
:104290002DE9F04B4FF00006002B1FBFB3FA83F55A
:1042A00003FA05F424FA05F65E4012BF1643B2FA8B
:1042B00082F502FA05F4C5F120051EBF22FA05FCBD
:1042C00044EA0C04203556EA044C4FEA144418BF63
:1042D000641C4FF000084FF00009904271EB030C92
:1042E00039D3002919BFB1FA81F701FA07F6B0FAFC
:1042F00080F700FA07F6C7F120071EBF20FA07FC77
:1043000046EA0C062037B6FBF4FCA7EB0507103F86
:1043100007F01F0BCBF120060CFA0BFB2CFA06F66C
:1043200044BFB3460026202FA4BF5E464FF0000BCB
:104330005BEA060C08BF4FF0010B19EB0B09ABFB56
:10434000027C48EB0608C01B06FB02CC0BFB03CC2F
:1043500071EB0C01C1E70B46024641464846BDE8F9
:10436000F08B13B54FF000004FF00001AFF3008069
:10437000BDE81C40704700001CB50C46064B7B4452
:1043800069460090204600F0C4F8044600206946C3
:10439000FBF7A9FF20461CBD65BFFFFF70B50446B3
:1043A00085690068C10601D5302600E02026C007D7
:1043B00008D070BDD4E9012130469047206A00F151
:1043C000010020626D1EF5D570BD70B5044685698B
:1043D0000068C00708D170BDD4E9012120209047B2
:1043E000206A00F1010020626D1EF5D570BD0968DC
:1043F0004A0501D540B27047C905FCD500B27047E7
:1044000009684A0501D5C0B27047C905FCD580B21C
:10441000704770B505460C46012A05D0286880060D
:1044200000D5EA69002302E0012305E05B1C93420A
:1044300002D2E05C0028F9D1A869E618C01AA86188
:10444000286A184428622846FFF7A8FF04E0D5E947
:10445000012114F8010B9047B442F8D32846FFF726
:10446000B4FF70BD2DE9F04107460025106875299D
:10447000394616A411D0FFF7BAFF002803DAC0F1BD
:10448000000013A407E039688A0701D511A402E0EF
:10449000490704D510A4012501E0FFF7B1FF002171
:1044A0000A2307F1240607E0B0FBF3F203FB120036
:1044B000303070541046491C0028F5D12B46224656
:1044C0003846BDE8F04100F066BA00000000000088
:1044D0002D0000002B000000200000001168026881
:1044E000006A530501D508700BE0D30501D508809B
:1044F00007E0130603D5C217C1E9000201E0520626
:10450000086001207047000001694A1C02610878B8
:10451000704700B58FB0CDE9013100210591054903
:104520007944CDE903101146684600F029F90FB02F
:1045300000BD0000E5FFFFFF2DE9FF5F04468A464E
:104540001546DFF8AC80F8440027D8E900103E4655
:10455000CDE9001011E03AF816106A4602A800F002
:10456000B1FC411C07D02168890603D5E2693918DE
:1045700091420ED8074406F101062068800602D554
:10458000E069B84205DDAE42E5DB3AF816000028E6
:10459000E1D1A069C01BA0612046FFF7FFFED8E96A
:1045A0000010CDE90010002016E03AF818106A4615
:1045B00002A800F087FC8146401C0BD000250DF1BD
:1045C000080B05E0D4E901211BF8050090476D1C9C
:1045D0004D45F7D308F10100B0428046E5DB206A83
:1045E000384420622046FFF7F0FEBDE8FF9F000040
:1045F0003A1400002DE9F0418046D21D22F0070256
:104600000026D2E90002F52914A512D0002A06DA04
:104610000023D0EB030063EB020211A508E0D8F8F9
:1046200000108B0701D50FA502E0490701D50EA5A3
:1046300001261146002408F1240704E000F066F981
:1046400030323A55641C50EA0102F7D133462A460B
:1046500021464046BDE8F04100F09DB90000000051
:104660002D0000002B0000002000000030B40021CD
:1046700000F124040CE002F0070505F130054FEAD3
:10468000D20242EA4372655401F101014FEAD303B9
:1046900052EA0305EFD10468002310A2250708D5CC
:1046A00004F020040C4304D0C46901230CA2641E4E
:1046B000C46130BC00F06FB910B5044621461068E3
:1046C000FFF79EFE02462046BDE810400023CDE7DE
:1046D000D21D22F00701D1E90023C7E70000000046
:1046E00030000000F0B40F460168090502D5234CE4
:1046F0007C4402E0214C7C440E34002100F124056E
:104700000BE002F00F064FEA1212A65D42EA0372B6
:104710004FEA13136E5401F1010152EA0306F0D17E
:10472000224604680023240704D5702F05D009B160
:1047300011320223F0BC00F02EB910320123F9E748
:1047400070B504460D4621461068FFF759FE024633
:1047500029462046BDE870400023C3E7D21D22F061
:104760000703D3E90023BDE70368126843F0200381
:1047700003600823C3610023B4E70000981200001F
:104780002DE9F05F044689464FF0000ADFF878B162
:10479000FB44C0F820A02046E1688847002875D077
:1047A000252806D0D4E901219047206A401C2062C8
:1047B000F1E700265F462046E16888472028054645
:1047C00008DB312D06D207EB050010F8200C08B1EC
:1047D0000643F0E7B00701D526F00406C4F81CA094
:1047E0000027C4F818A02A2D09D0284601F08DF81A
:1047F00038B304EB8708303DC8F8185019E059F871
:10480000041B204604EB87029161E1688847012F71
:10481000054618D1E069002820DA26F020061DE0C0
:10482000D8F8180000EB800005EB40003038C8F8DD
:1048300018002046E1688847054601F066F8002820
:10484000EED1012F0AD02E2D08D12046E1688847ED
:104850007F1C0546022F46F02006C4DBA069002815
:1048600003DA404246F00106A061F00701D026F0CD
:1048700010066C2D0BD0682D09D04C2D39D06A2D27
:1048800035D0742D35D07A2D33D016E038E0E1687C
:104890002F4620468847B842054609D16C2F26D0BE
:1048A0004FF48060E168064320468847054604E0EF
:1048B0006C2F1AD04FF4807006430DB3A5F1410060
:1048C000192802D8203546F400664A462946204673
:1048D00026604E46FBF754FC80B101280BD0F61D34
:1048E00026F0070000F1080955E74020E4E78020A2
:1048F000D8E70020D6E706F104094CE7284651E73F
:10490000206ABDE8F09F00002012000030B5B0F131
:104910000A024FEA900E71F100034EEA817EB0EB7D
:104920000E0061EB91014FEA101E4EEA017E10EB82
:104930000E0041EB11114FEA102E4EEA016E10EB02
:104940000E0041EB11214FEA104E4EEA014E10EBE2
:104950000E0041EB1141401841F100014FEAD00037
:1049600040EA41704FEAD10110EB80054FEA810423
:1049700044EA907444EB01046D1944EB0404521BA7
:10498000A3414FF0000348BF0A3200D530BD401CA0
:1049900041F1000130BD2DE9F0470D460446924635
:1049A000994600F124080168880604D5E06921F0E1
:1049B0001001216000E00120A84202DDA0EB050704
:1049C00000E00027A16907EB050202EB0300A1EB61
:1049D0000000A0612068C00602D42046FFF7DEFC7C
:1049E000002608E0D4E901211AF806009047206A61
:1049F000401C761C20624E45F4DB2068C0060AD5B8
:104A00002046FFF7CBFC06E0D4E901213020904797
:104A1000206A401C2062381EA7F10107F4DC07E081
:104A2000D4E9012118F805009047206A401C206253
:104A3000281EA5F10105F3DC2046FFF7C6FC20681F
:104A4000000602D50220BDE8F0870120FBE7704791
:104A50002DE9FF4F0C461E464FF0FF378BB0D2E9D1
:104A60000001DDF860800A908A46C1F30A5505B955
:104A70003D46002108464FF00000BAF1000F00F457
:104A8000400005DA00EB80004FF4400101EA5000DD
:104A90004FEA9059B9F1010F00DDB9460A9850EA82
:104AA0004A000ED044F61050A5F2FF3545432F14AE
:104AB000B8F1000F1ED07542291E1EDDC9F100029B
:104AC0001CE0B8F1010F4FF0000001D1F24307E004
:104AD000302101E02154401CB042FBDB3046002273
:104AE000002121540B99C1F80880C1E900200FB0C2
:104AF000BDE8F08FBD1B6D1CDEE74A4600DA694257
:104B000006A800F06DFA06AB07CB03AB07C350460F
:104B10000A9900F02BFB8DE80700A0F500501F3824
:104B200000900398002D09DD42F21F014A46084417
:104B300003A90390684600F08AFD08E0A0F5005044
:104B40004A461F3803A90390684600F094FD8DE89B
:104B500007000004000C03D04FF0FF30410800E0D4
:104B60001046B8F1000F03D00022009215461FE056
:104B7000751E06D4FFF7CAFE02F1300262556D1EA3
:104B8000F8D5B3460122084302D000227F1C04E07E
:104B90002078302801D100227F1E002A099787D073
:104BA0001DE0112D07DAFFF7B1FE303262556D1CA2
:104BB00050EA0102F5D108430FD10021681E05E03B
:104BC000235C625C6354491C2254401E8142F7DB23
:104BD000AB46A81B401E099001E0009848B1002098
:104BE00004F80B000B98099AC0F80880C0E9002B64
:104BF0007DE711264FF000085AE72DE9F04F88466F
:104C00000446D21D22F0070191B0D1E90001CDE99F
:104C10000A0100F066FE02460B98C00F01D02D205D
:104C200007E02068810701D52B2002E0202101EA5E
:104C3000C000032A099001D0072A05DB034641463C
:104C4000204600F08DF90EE12068800601D5E0696C
:104C500000E00620B8F1650F814606D0B8F1660F76
:104C600018D0B8F1670F72D132E00020B9F1110FFE
:104C70000090484601DB112300E0431C0AAA01A969
:104C80000CA8FFF7E5FEDDE90C70002609F101052F
:104C9000834648E001204B4600904FF000470AAAA7
:104CA00001A90CA8FFF7D4FEDDE90C050E9900263A
:104CB000AB4619B909F1010100EB0105B9EB05009B
:104CC00003D4C0F1FF3609F10105A5EB09002BE083
:104CD000B9F1010F01DA4FF001090020B9F1110F0C
:104CE0000090484601DD112300E003460AAA01A90D
:104CF0000CA8FFF7ADFEDDE90C704D46002683469B
:104D0000206800070AD4AB4500DA5D4601A8012DF2
:104D100004DD411911F8011C302907D04F4502DA92
:104D200017F1040F04DA0120824610E06D1EEEE751
:104D3000002F02DCED1B3E4403E0781CA84200DD9E
:104D40000546A7EB060000F1010A4FF00047206876
:104D5000000703D4AA4501DB4FF0FF3A0021B7F169
:104D6000004F0DF143088DF8431022D002202B2371
:104D7000002F01DA7F422D230A22011EA0F101003B
:104D800000DC4FB197FBF2F102FB117C0F460CF1F6
:104D9000300C08F801CDF0E7A8F10100037021689C
:104DA000090501D5452100E06521A0F1010800F8C1
:104DB000011C09980FA9A1EB080707F1070700B12B
:104DC000012000EB050101EBEA70A1693844A1EB79
:104DD0000000A0F10100A0612068C00602D42046B6
:104DE000FFF7DCFA099830B1D4E901219047206A35
:104DF00000F1010020622068C00620D52046FFF7A0
:104E0000CDFA1CE0002E04DBB34502DD01A8805D75
:104E100000E03020D4E901219047206A761C401C34
:104E2000BAF1010A20620AD1FBF762FAC068016890
:104E3000405CD4E901219047206A401C2062281E72
:104E4000A5F10105DEDC07E0D4E9012118F8010B2A
:104E50009047206A401C2062381EA7F10107F3DC4E
:104E60002046FFF7B2FA022011B041E610B54369BF
:104E700013B1AFF3008001E0FFF7CBFA012010BDC2
:104E8000126800F124010A7000224A700122EDE745
:104E900011684FF0FF32E9E710B5436913B1AFF382
:104EA000008001E0FFF748FB012010BD126800F10F
:104EB000240182840022C2840122EDE711684FF0B0
:104EC000FF32E9E770B505460C46164600F040F89B
:104ED000036893F80101012806D0FF2C0FD8185D54
:104EE00068B101202C7070BDD3F80701324621460D
:104EF00003442846BDE8704003F2071318474FF0FB
:104F0000FF3070BD754600F0E3F8AE460500694617
:104F1000534620F00700854618B020B5FBF7AAF9E4
:104F2000BDE820404FF000064FF000074FF00008AA
:104F30004FF0000B21F00701AC46ACE8C009ACE82B
:104F4000C009ACE8C009ACE8C0098D467047000054
:104F500010B5FBF7CDF9001D10BD00BFE909000039
:104F60002DE9F04104461F4603260168072A01F493
:104F7000006004DB08B116A505E016A503E008B142
:104F800015A500E015A521F010002060A069C01E45
:104F9000A0610FB1401EA0612046FFF7FFF94FB19D
:104FA000D4E9012138469047206A401C2062C01C89
:104FB000206206E0206AFAE7D4E9012115F8010B26
:104FC0009047761EF8D22046FFF7FFF9BDE8F08142
:104FD0004E414E006E616E00494E4600696E66009D
:104FE0002DE9F047814616468AB035487844D0E925
:104FF000002380680092CDE90130314878440C38B4
:10500000D0E90223006903924FF03702CDE9043062
:1050100041F69B30014491FBF2F0A0F1800502FBC8
:1050200010141B3C02D56442012000E00020DFF890
:1050300090A080460027FA44AAF1C60A0DE0E007D6
:1050400009D03246684607EB47010AEB810100F0C0
:1050500012FB8DE8070064107F1C002CEFD1184F65
:105060007F44B43F17E0E80713D007EB04100DF1BD
:10507000180A90E80E00AAE80E00C068F04201D1BC
:1050800098190890324606A903A800F0F4FA03AB79
:1050900007C36D10641C002DE5D132466946B8F196
:1050A000000F03A802D000F0D2FA01E000F0E3FA0A
:1050B000C9E90001C9F808200AB0BDE8F08700007E
:1050C000540A00000446AFF300802046FBF7BDF809
:1050D00000487047F00300104FF0013C50F8042BDB
:1050E00051F8043B9A4221D1A2EB0C03934313EAFB
:1050F000CC1317D150F8042B51F8043B9A4215D128
:10510000A2EB0C03934313EACC130BD150F8042BFE
:1051100051F8043B9A4209D1A2EB0C03934313EAE2
:10512000CC13DBD04FF00000704700BFD01A01BA9B
:10513000B1FA81F101F0180122FA01F0CB40C1F17E
:105140002001DBB2C0B2C01A2CFA01F3D11A91438C
:1051500011EAC311E6D1704701491820ABBEFEE742
:105160002600020000487047F40300105FEA400C7C
:1051700008BF91F0000F4FEA8C234FEAC12243EAA7
:1051800051514FEA1C5018BF00F5F0404FEA300073
:1051900018BF41F000415FEA6C5C00F02980BCF16F
:1051A000FF3F08BF40F080407047130C06BF120459
:1051B0004FF0100C4FF0000C130E04BF12020CF154
:1051C000080C130F04BF12010CF1040C930F04BF61
:1051D00092000CF1020CD30F04BF52000CF1010C31
:1051E00011464FF00002A0F11F00A0EB0C00704729
:1051F00011F0004F08BF704731F000413FF4D5AFC8
:105200000B0C06BF09044FF0100C4FF0000C0B0EF6
:1052100004BF09020CF1080C0B0F04BF09010CF1CB
:10522000040C8B0F04BF89000CF1020CCB0F04BFE0
:1052300049000CF1010CCCF12003A0EB0C0022FA88
:1052400003F302FA0CF241EA030100F10100704796
:1052500020F07F4C80EA030023F07F47ACEB07038C
:1052600003F57C5300F0004003F1FF032DE9804972
:105270004FEA154B09B44FEA144325EA0B4E24EAD2
:1052800003480FF2042606EB132749083E785FEA2D
:10529000320203FB0667C7F5000707FB06F64FEA75
:1052A00054374FEAD64606F1020607FB066CCCF1EE
:1052B000005C4FEA1C472CEA074C07FB06F40CFB8A
:1052C00006F504EB15464FEA961634BF00204FF062
:1052D00000404FEAD13706FB07FC4FEA1C4C0CFBA1
:1052E0000BF7D21B03FB0CF761EB07010CFB0EF76E
:1052F000B0EB074072EB17420CFB08F734BFA2EB90
:105300000742B2EB074261EB17414FEA0C444FEA08
:10531000910706FB07FC4FEA1C4C0CFB0BF7B0EBAC
:10532000C74072EB573203FB0CF734BFA2EBC74206
:10533000B2EBC74261EB57310CFB0EF7B0EBC70085
:1053400072EB57720CFB08F734BFA2EBC702B2EB4B
:10535000C70261EB5771039F4FEA816141EA9211E5
:1053600004EBCC044FEAD1374FEA826206FB07FC1C
:1053700042EA90124FEA80604FEA1C4C0CFB0BF79C
:10538000D21B03FB0CF761EB07010CFB0EF7B0EB34
:10539000074072EB17420CFB08F734BFA2EB074241
:1053A000B2EB074261EB17414FEA8C554FEA910788
:1053B00004EB9C2406FB07FC4FEA1C4C0CFB0BF790
:1053C000B0EBC74072EB573203FB0CF734BFA2EBD4
:1053D000C742B2EBC74261EB57310CFB0EF7B0EBA3
:1053E000C70072EB57720CFB08F734BFA2EBC70281
:1053F000B2EBC70261EB577115EB4C254FEA8161A7
:1054000041EA92114FEA82624FEAD13742EA9012A2
:1054100006FB07FC44F100044FEA80604FEA1C4C95
:105420000CFB0BF7D21B03FB0CF761EB07010CFB2A
:105430000EF7B0EB074072EB17420CFB08F734BFD6
:10544000A2EB0742B2EB074261EB174115EB1C15CB
:105450004FEA813141EA92414FEA823242EA904278
:105460004FEA80304FEA0C7644F1000448EA0343E7
:105470004EEA0B484FF0000EB2EB080C71EB03073D
:1054800024BF624639464EEB0E0E4FF0000B00185B
:10549000524149414BEB0B0BB2EB080C71EB03078C
:1054A0007BF1000B24BF624639464EEB0E0E4FF0E7
:1054B000000B0018524149414BEB0B0BB2EB080CAF
:1054C00071EB03077BF1000B24BF624639464EEBBC
:1054D0000E0E51EA020718BF46F0010616EB0E76D3
:1054E00055F1000254F1000103D5BDE88901BDE882
:1054F0000088BDE88901BDE80048B619524141EB7A
:105500000101A3F10103704780807F7E7D7C7B7A5F
:105510007978777676757473727171706F6E6E6D5F
:105520006C6C6B6A6A696868676666656464636305
:1055300062616160605F5F5E5E5D5D5C5C5B5B5A8B
:105540005A595958585757565655555554545353F8
:1055500052525251515050504F4F4F4E4E4D4D4D53
:105560004C4C4C4B4B4B4A4A4A494949484848479E
:1055700047474746464645454544444444434343DC
:105580004342424242414141002B26D4770021D080
:105590001CB54FEA370703B44FF010004FF010016D
:1055A0004FF000000FBCBDE810400BF1010BBBF148
:1055B000010F08BF5FEA170722BF12F1010211F1C4
:1055C00001014FF0004143F1000300F0004043EAC5
:1055D00000007047F9D35708DAE746EA064613F1A8
:1055E000400F4FEA16461FDD13F1200FDFBF1643B1
:1055F0000A46002120335B42C8D0C3F1200746EAA7
:10560000064602FA07F74FEA164646EA0706C3F1CE
:10561000200722FA03F201FA07F721FA03F14FF00B
:10562000000342EA0702B1E746EA020646EA0646F6
:105630004FEA164646EA0106BCBF46EA0646360C65
:105640004FF000034FF000024FF000019EE72DE9FC
:10565000C048934630B491E8380007C831EA400C9E
:1056600048BF34EA430C03D5FFF7F2FDFFF78CFF88
:10567000F0BCBDE800882DE9C048934630B491E8FD
:10568000380007C810F0804F08BF13F0804F03D1D7
:1056900000F005F8FFF778FFF0BCBDE8008820F0C7
:1056A0007F4780EA030023F07F4C07EB0C03A3F550
:1056B0007C5300F00040A3F1FE0392F0000F00F0D5
:1056C000B38095F0000F00F077802DE901494FEA93
:1056D00011404FEA144621EA004800FB06FC24EA88
:1056E000064708FB06F607FB08F800FB07F718EB70
:1056F00006484CEB164C4FEA124B18EB07484FEAA2
:1057000015464CEB174022EA0B4E0BFB06FC25EA34
:1057100006470EFB06F607FB0EFE0BFB07F71EEB1C
:10572000064E4CEB164C4FF000061EEB074E4CEBB2
:10573000174B18EB0B0840F1000018EB0E0B58EB61
:10574000000840F100008F1A4FF000013CBFC94330
:10575000661B14BFB5EB040C00213CBFC943F61B0C
:105760004FEA17444EEA8E0E27EA04454FEA1C47DB
:1057700004FB07622CEA074C05FB07F70CFB05F658
:1057800004FB0CFC16EB074642EB174216EB0C46EB
:1057900042EB1C421BEB060658EB0202414146EA73
:1057A0009E0601D5BDE80189B619524141EB0101C0
:1057B000A3F10103BDE801894FEA14454FEA1147FF
:1057C00024EA054621EA074C05FB07F406FB07F728
:1057D0000CFB06F105FB0CFC11EB074144EB1744F5
:1057E0004FEA124711EB0C4144EB1C4422EA074CF0
:1057F00005FB07F206FB07F70CFB06F605FB0CFCA6
:1058000016EB074642EB174216EB0C4642EB1C45E3
:105810006A1854F1000148BF7047B619524141EB74
:105820000101A3F10103704795F0000F37D04FEA53
:1058300011424FEA144721EA024624EA074C02FBD0
:1058400007F106FB07F70CFB06F402FB0CFC14EB5C
:10585000074441EB17414FEA154714EB0C4441EB69
:105860001C4125EA074C02FB07F506FB07F70CFB7A
:1058700006F602FB0CFC16EB074645EB174516EB4C
:105880000C4645EB1C42121951F1000148BF70470C
:10589000B619524141EB0101A3F1010370474FEAF0
:1058A00014454FEA114724EA054621EA074C05FB57
:1058B00007F106FB07F70CFB06F24FF0000605FBAD
:1058C0000CFC12EB074241EB174112EB0C4251EB7F
:1058D0001C4148BF7047921841EB0101A3F101033D
:1058E0007047490050EAC12018BF04204A0D18BF74
:1058F00040F0010040F2FF72B2EB515F08BF40F090
:105900000200012808BF0520704730380A2801D25C
:10591000012070470020704710B500290AD0087890
:10592000002807D005487844FFF7D6FB002801D0AF
:10593000002010BD0248784410BD00005601000050
:105940004E01000010B500290AD00878002807D0C1
:1059500005487844FFF7C0FB002801D0002010BDA7
:105960000248784410BD0000460100003E010000DE
:1059700010B5FFF7F7FB4FF00001016010BDFFF716
:105980003CB900000000000000000000303132335C
:105990003435363738394142434445464030580063
:1059A0003031323334353637383961626364656695
:1059B00040307800040000080000000000000002F1
:1059C000000100001000000002400000000000A0E4
:1059D0000000000005400000000000C800000000BA
:1059E0000C4000000000409C000000001940000036
:1059F0000020BCBE0000000034400000BFC91B8E68
:105A000000000004B5400000504BCFD06607E2CF45
:105A1000010000006C4100003E8251AADFEEA73475
:105A200001000000D9420000DCB5A0E23A301F9727
:105A3000FFFFFFFFB4450000FD25A0C8E9A3C14F4B
:105A4000FFFFFFFFFF3F000000000080000000009C
:105A5000FF3F00000000008000000000A85B000085
:105A600000000010CC01000008010000845C000070
:105A7000CC01001084040000640100001C00000040
:105A800043000000F8FFFFFF0C0000000E000000C4
:105A90000F0000002E000000100100004300000075
:105AA000F8FFFFFF0040404040404040404041413F
:105AB00041414140404040404040404040404040E3
:105AC000404040404005020202020202020202027D
:105AD000020202020220202020202020202020027A
